{
  "_format": "hh-sol-artifact-1",
  "contractName": "UserRegistration",
  "sourceName": "contracts/UserRegistration.sol",
  "abi": [
    {
      "inputs": [],
      "stateMutability": "nonpayable",
      "type": "constructor"
    },
    {
      "anonymous": false,
      "inputs": [
        {
          "indexed": true,
          "internalType": "address",
          "name": "walletAddress",
          "type": "address"
        }
      ],
      "name": "UserDeleted",
      "type": "event"
    },
    {
      "anonymous": false,
      "inputs": [
        {
          "indexed": true,
          "internalType": "address",
          "name": "walletAddress",
          "type": "address"
        },
        {
          "indexed": false,
          "internalType": "string",
          "name": "name",
          "type": "string"
        }
      ],
      "name": "UserRegistered",
      "type": "event"
    },
    {
      "anonymous": false,
      "inputs": [
        {
          "indexed": true,
          "internalType": "address",
          "name": "walletAddress",
          "type": "address"
        },
        {
          "indexed": false,
          "internalType": "string",
          "name": "name",
          "type": "string"
        }
      ],
      "name": "UserUpdated",
      "type": "event"
    },
    {
      "inputs": [],
      "name": "deleteUser",
      "outputs": [],
      "stateMutability": "nonpayable",
      "type": "function"
    },
    {
      "inputs": [],
      "name": "getUserDetails",
      "outputs": [
        {
          "internalType": "string",
          "name": "",
          "type": "string"
        }
      ],
      "stateMutability": "view",
      "type": "function"
    },
    {
      "inputs": [
        {
          "internalType": "string",
          "name": "_name",
          "type": "string"
        }
      ],
      "name": "registerUser",
      "outputs": [],
      "stateMutability": "nonpayable",
      "type": "function"
    },
    {
      "inputs": [
        {
          "internalType": "string",
          "name": "_name",
          "type": "string"
        }
      ],
      "name": "updateUser",
      "outputs": [],
      "stateMutability": "nonpayable",
      "type": "function"
    },
    {
      "inputs": [
        {
          "internalType": "address",
          "name": "",
          "type": "address"
        }
      ],
      "name": "users",
      "outputs": [
        {
          "internalType": "address",
          "name": "walletAddress",
          "type": "address"
        },
        {
          "internalType": "string",
          "name": "name",
          "type": "string"
        }
      ],
      "stateMutability": "view",
      "type": "function"
    }
  ],
  "bytecode": "0x608060405234801561001057600080fd5b506001600081905550611015806100286000396000f3fe608060405234801561001057600080fd5b50600436106100575760003560e01c8063026ff05e1461005c5780630b4f12f614610066578063704f1b9414610082578063942886be1461009e578063a87430ba146100bc575b600080fd5b6100646100ed565b005b610080600480360381019061007b91906109ff565b61027c565b005b61009c600480360381019061009791906109ff565b6103b6565b005b6100a66105c6565b6040516100b39190610ac7565b60405180910390f35b6100d660048036038101906100d19190610b47565b61077c565b6040516100e4929190610b83565b60405180910390f35b600073ffffffffffffffffffffffffffffffffffffffff16600160003373ffffffffffffffffffffffffffffffffffffffff1673ffffffffffffffffffffffffffffffffffffffff16815260200190815260200160002060000160009054906101000a900473ffffffffffffffffffffffffffffffffffffffff1673ffffffffffffffffffffffffffffffffffffffff16036101be576040517f08c379a00000000000000000000000000000000000000000000000000000000081526004016101b590610bff565b60405180910390fd5b600160003373ffffffffffffffffffffffffffffffffffffffff1673ffffffffffffffffffffffffffffffffffffffff168152602001908152602001600020600080820160006101000a81549073ffffffffffffffffffffffffffffffffffffffff02191690556001820160006102359190610848565b50503373ffffffffffffffffffffffffffffffffffffffff167f4bc56f1321288dfb5b416cb3a7fd188723979f9e866c91d88eccf7fca039d03960405160405180910390a2565b6000600160003373ffffffffffffffffffffffffffffffffffffffff1673ffffffffffffffffffffffffffffffffffffffff1681526020019081526020016000209050600073ffffffffffffffffffffffffffffffffffffffff168160000160009054906101000a900473ffffffffffffffffffffffffffffffffffffffff1673ffffffffffffffffffffffffffffffffffffffff1603610352576040517f08c379a000000000000000000000000000000000000000000000000000000000815260040161034990610bff565b60405180910390fd5b818160010190816103639190610e35565b503373ffffffffffffffffffffffffffffffffffffffff167fd6136f3cad7c60bfc24bbf1548f39f766ca8bce104bf9adde3deb6237dec51df836040516103aa9190610ac7565b60405180910390a25050565b6002600054036103fb576040517f08c379a00000000000000000000000000000000000000000000000000000000081526004016103f290610f53565b60405180910390fd5b6002600081905550600073ffffffffffffffffffffffffffffffffffffffff16600160003373ffffffffffffffffffffffffffffffffffffffff1673ffffffffffffffffffffffffffffffffffffffff16815260200190815260200160002060000160009054906101000a900473ffffffffffffffffffffffffffffffffffffffff1673ffffffffffffffffffffffffffffffffffffffff16146104d4576040517f08c379a00000000000000000000000000000000000000000000000000000000081526004016104cb90610fbf565b60405180910390fd5b6000600160003373ffffffffffffffffffffffffffffffffffffffff1673ffffffffffffffffffffffffffffffffffffffff1681526020019081526020016000209050338160000160006101000a81548173ffffffffffffffffffffffffffffffffffffffff021916908373ffffffffffffffffffffffffffffffffffffffff1602179055508181600101908161056b9190610e35565b503373ffffffffffffffffffffffffffffffffffffffff167f48cac28ad4dc618e15f4c2dd5e97751182f166de97b25618318b2112aa951a2f836040516105b29190610ac7565b60405180910390a250600160008190555050565b60606000600160003373ffffffffffffffffffffffffffffffffffffffff1673ffffffffffffffffffffffffffffffffffffffff1681526020019081526020016000206040518060400160405290816000820160009054906101000a900473ffffffffffffffffffffffffffffffffffffffff1673ffffffffffffffffffffffffffffffffffffffff1673ffffffffffffffffffffffffffffffffffffffff16815260200160018201805461067a90610c4e565b80601f01602080910402602001604051908101604052809291908181526020018280546106a690610c4e565b80156106f35780601f106106c8576101008083540402835291602001916106f3565b820191906000526020600020905b8154815290600101906020018083116106d657829003601f168201915b5050505050815250509050600073ffffffffffffffffffffffffffffffffffffffff16816000015173ffffffffffffffffffffffffffffffffffffffff1603610771576040517f08c379a000000000000000000000000000000000000000000000000000000000815260040161076890610bff565b60405180910390fd5b806020015191505090565b60016020528060005260406000206000915090508060000160009054906101000a900473ffffffffffffffffffffffffffffffffffffffff16908060010180546107c590610c4e565b80601f01602080910402602001604051908101604052809291908181526020018280546107f190610c4e565b801561083e5780601f106108135761010080835404028352916020019161083e565b820191906000526020600020905b81548152906001019060200180831161082157829003601f168201915b5050505050905082565b50805461085490610c4e565b6000825580601f106108665750610885565b601f0160209004906000526020600020908101906108849190610888565b5b50565b5b808211156108a1576000816000905550600101610889565b5090565b6000604051905090565b600080fd5b600080fd5b600080fd5b600080fd5b6000601f19601f8301169050919050565b7f4e487b7100000000000000000000000000000000000000000000000000000000600052604160045260246000fd5b61090c826108c3565b810181811067ffffffffffffffff8211171561092b5761092a6108d4565b5b80604052505050565b600061093e6108a5565b905061094a8282610903565b919050565b600067ffffffffffffffff82111561096a576109696108d4565b5b610973826108c3565b9050602081019050919050565b82818337600083830152505050565b60006109a261099d8461094f565b610934565b9050828152602081018484840111156109be576109bd6108be565b5b6109c9848285610980565b509392505050565b600082601f8301126109e6576109e56108b9565b5b81356109f684826020860161098f565b91505092915050565b600060208284031215610a1557610a146108af565b5b600082013567ffffffffffffffff811115610a3357610a326108b4565b5b610a3f848285016109d1565b91505092915050565b600081519050919050565b600082825260208201905092915050565b60005b83811015610a82578082015181840152602081019050610a67565b60008484015250505050565b6000610a9982610a48565b610aa38185610a53565b9350610ab3818560208601610a64565b610abc816108c3565b840191505092915050565b60006020820190508181036000830152610ae18184610a8e565b905092915050565b600073ffffffffffffffffffffffffffffffffffffffff82169050919050565b6000610b1482610ae9565b9050919050565b610b2481610b09565b8114610b2f57600080fd5b50565b600081359050610b4181610b1b565b92915050565b600060208284031215610b5d57610b5c6108af565b5b6000610b6b84828501610b32565b91505092915050565b610b7d81610b09565b82525050565b6000604082019050610b986000830185610b74565b8181036020830152610baa8184610a8e565b90509392505050565b7f55736572206e6f7420666f756e64000000000000000000000000000000000000600082015250565b6000610be9600e83610a53565b9150610bf482610bb3565b602082019050919050565b60006020820190508181036000830152610c1881610bdc565b9050919050565b7f4e487b7100000000000000000000000000000000000000000000000000000000600052602260045260246000fd5b60006002820490506001821680610c6657607f821691505b602082108103610c7957610c78610c1f565b5b50919050565b60008190508160005260206000209050919050565b60006020601f8301049050919050565b600082821b905092915050565b600060088302610ce17fffffffffffffffffffffffffffffffffffffffffffffffffffffffffffffffff82610ca4565b610ceb8683610ca4565b95508019841693508086168417925050509392505050565b6000819050919050565b6000819050919050565b6000610d32610d2d610d2884610d03565b610d0d565b610d03565b9050919050565b6000819050919050565b610d4c83610d17565b610d60610d5882610d39565b848454610cb1565b825550505050565b600090565b610d75610d68565b610d80818484610d43565b505050565b5b81811015610da457610d99600082610d6d565b600181019050610d86565b5050565b601f821115610de957610dba81610c7f565b610dc384610c94565b81016020851015610dd2578190505b610de6610dde85610c94565b830182610d85565b50505b505050565b600082821c905092915050565b6000610e0c60001984600802610dee565b1980831691505092915050565b6000610e258383610dfb565b9150826002028217905092915050565b610e3e82610a48565b67ffffffffffffffff811115610e5757610e566108d4565b5b610e618254610c4e565b610e6c828285610da8565b600060209050601f831160018114610e9f5760008415610e8d578287015190505b610e978582610e19565b865550610eff565b601f198416610ead86610c7f565b60005b82811015610ed557848901518255600182019150602085019450602081019050610eb0565b86831015610ef25784890151610eee601f891682610dfb565b8355505b6001600288020188555050505b505050505050565b7f5265656e7472616e637947756172643a207265656e7472616e742063616c6c00600082015250565b6000610f3d601f83610a53565b9150610f4882610f07565b602082019050919050565b60006020820190508181036000830152610f6c81610f30565b9050919050565b7f5573657220616c72656164792072656769737465726564000000000000000000600082015250565b6000610fa9601783610a53565b9150610fb482610f73565b602082019050919050565b60006020820190508181036000830152610fd881610f9c565b905091905056fea2646970667358221220f7c537d16c68064763cc80c4b12fb9664a114c1da49000410b8512db75eea53b64736f6c63430008130033",
  "linkReferences": {},
  "deployedLinkReferences": {}
}