{
  "_format": "hh-sol-artifact-1",
  "contractName": "SocialFoundersToken",
  "sourceName": "contracts/MyToken.sol",
  "abi": [
    {
      "inputs": [],
      "stateMutability": "nonpayable",
      "type": "constructor"
    },
    {
      "anonymous": false,
      "inputs": [
        {
          "indexed": true,
          "internalType": "address",
          "name": "owner",
          "type": "address"
        },
        {
          "indexed": true,
          "internalType": "address",
          "name": "spender",
          "type": "address"
        },
        {
          "indexed": false,
          "internalType": "uint256",
          "name": "value",
          "type": "uint256"
        }
      ],
      "name": "Approval",
      "type": "event"
    },
    {
      "anonymous": false,
      "inputs": [
        {
          "indexed": true,
          "internalType": "address",
          "name": "from",
          "type": "address"
        },
        {
          "indexed": true,
          "internalType": "address",
          "name": "to",
          "type": "address"
        },
        {
          "indexed": false,
          "internalType": "uint256",
          "name": "value",
          "type": "uint256"
        }
      ],
      "name": "Transfer",
      "type": "event"
    },
    {
      "inputs": [
        {
          "internalType": "address",
          "name": "_newAddress",
          "type": "address"
        }
      ],
      "name": "addMinter",
      "outputs": [],
      "stateMutability": "nonpayable",
      "type": "function"
    },
    {
      "inputs": [],
      "name": "admin",
      "outputs": [
        {
          "internalType": "address",
          "name": "",
          "type": "address"
        }
      ],
      "stateMutability": "view",
      "type": "function"
    },
    {
      "inputs": [
        {
          "internalType": "address",
          "name": "owner",
          "type": "address"
        },
        {
          "internalType": "address",
          "name": "spender",
          "type": "address"
        }
      ],
      "name": "allowance",
      "outputs": [
        {
          "internalType": "uint256",
          "name": "",
          "type": "uint256"
        }
      ],
      "stateMutability": "view",
      "type": "function"
    },
    {
      "inputs": [
        {
          "internalType": "address",
          "name": "spender",
          "type": "address"
        },
        {
          "internalType": "uint256",
          "name": "amount",
          "type": "uint256"
        }
      ],
      "name": "approve",
      "outputs": [
        {
          "internalType": "bool",
          "name": "",
          "type": "bool"
        }
      ],
      "stateMutability": "nonpayable",
      "type": "function"
    },
    {
      "inputs": [
        {
          "internalType": "address",
          "name": "account",
          "type": "address"
        }
      ],
      "name": "balanceOf",
      "outputs": [
        {
          "internalType": "uint256",
          "name": "",
          "type": "uint256"
        }
      ],
      "stateMutability": "view",
      "type": "function"
    },
    {
      "inputs": [
        {
          "internalType": "uint256",
          "name": "amount",
          "type": "uint256"
        }
      ],
      "name": "burn",
      "outputs": [],
      "stateMutability": "nonpayable",
      "type": "function"
    },
    {
      "inputs": [],
      "name": "decimals",
      "outputs": [
        {
          "internalType": "uint8",
          "name": "",
          "type": "uint8"
        }
      ],
      "stateMutability": "view",
      "type": "function"
    },
    {
      "inputs": [
        {
          "internalType": "address",
          "name": "spender",
          "type": "address"
        },
        {
          "internalType": "uint256",
          "name": "subtractedValue",
          "type": "uint256"
        }
      ],
      "name": "decreaseAllowance",
      "outputs": [
        {
          "internalType": "bool",
          "name": "",
          "type": "bool"
        }
      ],
      "stateMutability": "nonpayable",
      "type": "function"
    },
    {
      "inputs": [],
      "name": "getMinters",
      "outputs": [
        {
          "internalType": "address[]",
          "name": "",
          "type": "address[]"
        }
      ],
      "stateMutability": "view",
      "type": "function"
    },
    {
      "inputs": [
        {
          "internalType": "address",
          "name": "from",
          "type": "address"
        },
        {
          "internalType": "address",
          "name": "to",
          "type": "address"
        }
      ],
      "name": "getUserAllowance",
      "outputs": [
        {
          "internalType": "uint256",
          "name": "",
          "type": "uint256"
        }
      ],
      "stateMutability": "view",
      "type": "function"
    },
    {
      "inputs": [
        {
          "internalType": "address",
          "name": "to",
          "type": "address"
        },
        {
          "internalType": "uint256",
          "name": "amount",
          "type": "uint256"
        }
      ],
      "name": "giftToken",
      "outputs": [],
      "stateMutability": "nonpayable",
      "type": "function"
    },
    {
      "inputs": [
        {
          "internalType": "address",
          "name": "spender",
          "type": "address"
        },
        {
          "internalType": "uint256",
          "name": "addedValue",
          "type": "uint256"
        }
      ],
      "name": "increaseAllowance",
      "outputs": [
        {
          "internalType": "bool",
          "name": "",
          "type": "bool"
        }
      ],
      "stateMutability": "nonpayable",
      "type": "function"
    },
    {
      "inputs": [
        {
          "internalType": "address",
          "name": "to",
          "type": "address"
        },
        {
          "internalType": "uint256",
          "name": "amount",
          "type": "uint256"
        }
      ],
      "name": "mint",
      "outputs": [],
      "stateMutability": "nonpayable",
      "type": "function"
    },
    {
      "inputs": [
        {
          "internalType": "uint256",
          "name": "",
          "type": "uint256"
        }
      ],
      "name": "minters",
      "outputs": [
        {
          "internalType": "address",
          "name": "",
          "type": "address"
        }
      ],
      "stateMutability": "view",
      "type": "function"
    },
    {
      "inputs": [],
      "name": "name",
      "outputs": [
        {
          "internalType": "string",
          "name": "",
          "type": "string"
        }
      ],
      "stateMutability": "view",
      "type": "function"
    },
    {
      "inputs": [
        {
          "internalType": "address",
          "name": "_addressToRemove",
          "type": "address"
        }
      ],
      "name": "removeMinter",
      "outputs": [],
      "stateMutability": "nonpayable",
      "type": "function"
    },
    {
      "inputs": [],
      "name": "symbol",
      "outputs": [
        {
          "internalType": "string",
          "name": "",
          "type": "string"
        }
      ],
      "stateMutability": "view",
      "type": "function"
    },
    {
      "inputs": [
        {
          "internalType": "address",
          "name": "to",
          "type": "address"
        },
        {
          "internalType": "uint256",
          "name": "amount",
          "type": "uint256"
        }
      ],
      "name": "tokenTransfer",
      "outputs": [],
      "stateMutability": "nonpayable",
      "type": "function"
    },
    {
      "inputs": [],
      "name": "totalSupply",
      "outputs": [
        {
          "internalType": "uint256",
          "name": "",
          "type": "uint256"
        }
      ],
      "stateMutability": "view",
      "type": "function"
    },
    {
      "inputs": [
        {
          "internalType": "address",
          "name": "to",
          "type": "address"
        },
        {
          "internalType": "uint256",
          "name": "amount",
          "type": "uint256"
        }
      ],
      "name": "transfer",
      "outputs": [
        {
          "internalType": "bool",
          "name": "",
          "type": "bool"
        }
      ],
      "stateMutability": "nonpayable",
      "type": "function"
    },
    {
      "inputs": [
        {
          "internalType": "address",
          "name": "from",
          "type": "address"
        },
        {
          "internalType": "address",
          "name": "to",
          "type": "address"
        },
        {
          "internalType": "uint256",
          "name": "amount",
          "type": "uint256"
        }
      ],
      "name": "transferFrom",
      "outputs": [
        {
          "internalType": "bool",
          "name": "",
          "type": "bool"
        }
      ],
      "stateMutability": "nonpayable",
      "type": "function"
    }
  ],
  "bytecode": "0x60806040523480156200001157600080fd5b506040518060400160405280600d81526020017f466f756e64657273546f6b656e000000000000000000000000000000000000008152506040518060400160405280600381526020017f46544e000000000000000000000000000000000000000000000000000000000081525081600390816200008f9190620004fa565b508060049081620000a19190620004fa565b505050620000c2336b033b2e3c9fd0803ce80000006200010960201b60201c565b33600660006101000a81548173ffffffffffffffffffffffffffffffffffffffff021916908373ffffffffffffffffffffffffffffffffffffffff160217905550620006fc565b600073ffffffffffffffffffffffffffffffffffffffff168273ffffffffffffffffffffffffffffffffffffffff16036200017b576040517f08c379a0000000000000000000000000000000000000000000000000000000008152600401620001729062000642565b60405180910390fd5b6200018f600083836200027660201b60201c565b8060026000828254620001a3919062000693565b92505081905550806000808473ffffffffffffffffffffffffffffffffffffffff1673ffffffffffffffffffffffffffffffffffffffff168152602001908152602001600020600082825401925050819055508173ffffffffffffffffffffffffffffffffffffffff16600073ffffffffffffffffffffffffffffffffffffffff167fddf252ad1be2c89b69c2b068fc378daa952ba7f163c4a11628f55a4df523b3ef83604051620002569190620006df565b60405180910390a362000272600083836200027b60201b60201c565b5050565b505050565b505050565b600081519050919050565b7f4e487b7100000000000000000000000000000000000000000000000000000000600052604160045260246000fd5b7f4e487b7100000000000000000000000000000000000000000000000000000000600052602260045260246000fd5b600060028204905060018216806200030257607f821691505b602082108103620003185762000317620002ba565b5b50919050565b60008190508160005260206000209050919050565b60006020601f8301049050919050565b600082821b905092915050565b600060088302620003827fffffffffffffffffffffffffffffffffffffffffffffffffffffffffffffffff8262000343565b6200038e868362000343565b95508019841693508086168417925050509392505050565b6000819050919050565b6000819050919050565b6000620003db620003d5620003cf84620003a6565b620003b0565b620003a6565b9050919050565b6000819050919050565b620003f783620003ba565b6200040f6200040682620003e2565b84845462000350565b825550505050565b600090565b6200042662000417565b62000433818484620003ec565b505050565b5b818110156200045b576200044f6000826200041c565b60018101905062000439565b5050565b601f821115620004aa5762000474816200031e565b6200047f8462000333565b810160208510156200048f578190505b620004a76200049e8562000333565b83018262000438565b50505b505050565b600082821c905092915050565b6000620004cf60001984600802620004af565b1980831691505092915050565b6000620004ea8383620004bc565b9150826002028217905092915050565b620005058262000280565b67ffffffffffffffff8111156200052157620005206200028b565b5b6200052d8254620002e9565b6200053a8282856200045f565b600060209050601f8311600181146200057257600084156200055d578287015190505b620005698582620004dc565b865550620005d9565b601f19841662000582866200031e565b60005b82811015620005ac5784890151825560018201915060208501945060208101905062000585565b86831015620005cc5784890151620005c8601f891682620004bc565b8355505b6001600288020188555050505b505050505050565b600082825260208201905092915050565b7f45524332303a206d696e7420746f20746865207a65726f206164647265737300600082015250565b60006200062a601f83620005e1565b91506200063782620005f2565b602082019050919050565b600060208201905081810360008301526200065d816200061b565b9050919050565b7f4e487b7100000000000000000000000000000000000000000000000000000000600052601160045260246000fd5b6000620006a082620003a6565b9150620006ad83620003a6565b9250828201905080821115620006c857620006c762000664565b5b92915050565b620006d981620003a6565b82525050565b6000602082019050620006f66000830184620006ce565b92915050565b612352806200070c6000396000f3fe608060405234801561001057600080fd5b50600436106101375760003560e01c806342966c68116100b857806395d89b411161007c57806395d89b4114610360578063983b2d561461037e578063a457c2d71461039a578063a9059cbb146103ca578063dd62ed3e146103fa578063f851a4401461042a57610137565b806342966c68146102aa57806368cdafe6146102c65780636b32810b146102e257806370a08231146103005780638623ec7b1461033057610137565b806323b872dd116100ff57806323b872dd146101f45780633092afd514610224578063313ce56714610240578063395093511461025e57806340c10f191461028e57610137565b806306fdde031461013c578063095ea7b31461015a57806318160ddd1461018a5780631f24285d146101a857806322af056e146101c4575b600080fd5b610144610448565b6040516101519190611672565b60405180910390f35b610174600480360381019061016f919061172d565b6104da565b6040516101819190611788565b60405180910390f35b6101926104fd565b60405161019f91906117b2565b60405180910390f35b6101c260048036038101906101bd919061172d565b610507565b005b6101de60048036038101906101d991906117cd565b61056b565b6040516101eb91906117b2565b60405180910390f35b61020e6004803603810190610209919061180d565b61057f565b60405161021b9190611788565b60405180910390f35b61023e60048036038101906102399190611860565b6105ae565b005b6102486107ce565b60405161025591906118a9565b60405180910390f35b6102786004803603810190610273919061172d565b6107d7565b6040516102859190611788565b60405180910390f35b6102a860048036038101906102a3919061172d565b61080e565b005b6102c460048036038101906102bf91906118c4565b6108fc565b005b6102e060048036038101906102db919061172d565b610909565b005b6102ea61098f565b6040516102f791906119af565b60405180910390f35b61031a60048036038101906103159190611860565b610a1d565b60405161032791906117b2565b60405180910390f35b61034a600480360381019061034591906118c4565b610a65565b60405161035791906119e0565b60405180910390f35b610368610aa4565b6040516103759190611672565b60405180910390f35b61039860048036038101906103939190611860565b610b36565b005b6103b460048036038101906103af919061172d565b610c9b565b6040516103c19190611788565b60405180910390f35b6103e460048036038101906103df919061172d565b610d12565b6040516103f19190611788565b60405180910390f35b610414600480360381019061040f91906117cd565b610d35565b60405161042191906117b2565b60405180910390f35b610432610dbc565b60405161043f91906119e0565b60405180910390f35b60606003805461045790611a2a565b80601f016020809104026020016040519081016040528092919081815260200182805461048390611a2a565b80156104d05780601f106104a5576101008083540402835291602001916104d0565b820191906000526020600020905b8154815290600101906020018083116104b357829003601f168201915b5050505050905090565b6000806104e5610de2565b90506104f2818585610dea565b600191505092915050565b6000600254905090565b60026005540361054c576040517f08c379a000000000000000000000000000000000000000000000000000000000815260040161054390611aa7565b60405180910390fd5b600260058190555061055e8282610d12565b5060016005819055505050565b60006105778383610d35565b905092915050565b60008061058a610de2565b9050610597858285610fb3565b6105a285858561103f565b60019150509392505050565b600660009054906101000a900473ffffffffffffffffffffffffffffffffffffffff1673ffffffffffffffffffffffffffffffffffffffff163373ffffffffffffffffffffffffffffffffffffffff161461063e576040517f08c379a000000000000000000000000000000000000000000000000000000000815260040161063590611b13565b60405180910390fd5b60005b6007805490508110156107ca578173ffffffffffffffffffffffffffffffffffffffff166007828154811061067957610678611b33565b5b9060005260206000200160009054906101000a900473ffffffffffffffffffffffffffffffffffffffff1673ffffffffffffffffffffffffffffffffffffffff16036107b757600760016007805490506106d39190611b91565b815481106106e4576106e3611b33565b5b9060005260206000200160009054906101000a900473ffffffffffffffffffffffffffffffffffffffff166007828154811061072357610722611b33565b5b9060005260206000200160006101000a81548173ffffffffffffffffffffffffffffffffffffffff021916908373ffffffffffffffffffffffffffffffffffffffff160217905550600780548061077d5761077c611bc5565b5b6001900381819060005260206000200160006101000a81549073ffffffffffffffffffffffffffffffffffffffff021916905590556107ca565b80806107c290611bf4565b915050610641565b5050565b60006012905090565b6000806107e2610de2565b90506108038185856107f48589610d35565b6107fe9190611c3c565b610dea565b600191505092915050565b6000805b6007805490508110156108ac573373ffffffffffffffffffffffffffffffffffffffff166007828154811061084a57610849611b33565b5b9060005260206000200160009054906101000a900473ffffffffffffffffffffffffffffffffffffffff1673ffffffffffffffffffffffffffffffffffffffff160361089957600191506108ac565b80806108a490611bf4565b915050610812565b50806108ed576040517f08c379a00000000000000000000000000000000000000000000000000000000081526004016108e490611cbc565b60405180910390fd5b6108f783836112b5565b505050565b610906338261140b565b50565b60026005540361094e576040517f08c379a000000000000000000000000000000000000000000000000000000000815260040161094590611aa7565b60405180910390fd5b6002600581905550610983600660009054906101000a900473ffffffffffffffffffffffffffffffffffffffff16838361103f565b60016005819055505050565b60606007805480602002602001604051908101604052809291908181526020018280548015610a1357602002820191906000526020600020905b8160009054906101000a900473ffffffffffffffffffffffffffffffffffffffff1673ffffffffffffffffffffffffffffffffffffffff16815260200190600101908083116109c9575b5050505050905090565b60008060008373ffffffffffffffffffffffffffffffffffffffff1673ffffffffffffffffffffffffffffffffffffffff168152602001908152602001600020549050919050565b60078181548110610a7557600080fd5b906000526020600020016000915054906101000a900473ffffffffffffffffffffffffffffffffffffffff1681565b606060048054610ab390611a2a565b80601f0160208091040260200160405190810160405280929190818152602001828054610adf90611a2a565b8015610b2c5780601f10610b0157610100808354040283529160200191610b2c565b820191906000526020600020905b815481529060010190602001808311610b0f57829003601f168201915b5050505050905090565b600660009054906101000a900473ffffffffffffffffffffffffffffffffffffffff1673ffffffffffffffffffffffffffffffffffffffff163373ffffffffffffffffffffffffffffffffffffffff1614610bc6576040517f08c379a0000000000000000000000000000000000000000000000000000000008152600401610bbd90611d28565b60405180910390fd5b600073ffffffffffffffffffffffffffffffffffffffff168173ffffffffffffffffffffffffffffffffffffffff1603610c35576040517f08c379a0000000000000000000000000000000000000000000000000000000008152600401610c2c90611d94565b60405180910390fd5b6007819080600181540180825580915050600190039060005260206000200160009091909190916101000a81548173ffffffffffffffffffffffffffffffffffffffff021916908373ffffffffffffffffffffffffffffffffffffffff16021790555050565b600080610ca6610de2565b90506000610cb48286610d35565b905083811015610cf9576040517f08c379a0000000000000000000000000000000000000000000000000000000008152600401610cf090611e26565b60405180910390fd5b610d068286868403610dea565b60019250505092915050565b600080610d1d610de2565b9050610d2a81858561103f565b600191505092915050565b6000600160008473ffffffffffffffffffffffffffffffffffffffff1673ffffffffffffffffffffffffffffffffffffffff16815260200190815260200160002060008373ffffffffffffffffffffffffffffffffffffffff1673ffffffffffffffffffffffffffffffffffffffff16815260200190815260200160002054905092915050565b600660009054906101000a900473ffffffffffffffffffffffffffffffffffffffff1681565b600033905090565b600073ffffffffffffffffffffffffffffffffffffffff168373ffffffffffffffffffffffffffffffffffffffff1603610e59576040517f08c379a0000000000000000000000000000000000000000000000000000000008152600401610e5090611eb8565b60405180910390fd5b600073ffffffffffffffffffffffffffffffffffffffff168273ffffffffffffffffffffffffffffffffffffffff1603610ec8576040517f08c379a0000000000000000000000000000000000000000000000000000000008152600401610ebf90611f4a565b60405180910390fd5b80600160008573ffffffffffffffffffffffffffffffffffffffff1673ffffffffffffffffffffffffffffffffffffffff16815260200190815260200160002060008473ffffffffffffffffffffffffffffffffffffffff1673ffffffffffffffffffffffffffffffffffffffff168152602001908152602001600020819055508173ffffffffffffffffffffffffffffffffffffffff168373ffffffffffffffffffffffffffffffffffffffff167f8c5be1e5ebec7d5bd14f71427d1e84f3dd0314c0f7b2291e5b200ac8c7c3b92583604051610fa691906117b2565b60405180910390a3505050565b6000610fbf8484610d35565b90507fffffffffffffffffffffffffffffffffffffffffffffffffffffffffffffffff8114611039578181101561102b576040517f08c379a000000000000000000000000000000000000000000000000000000000815260040161102290611fb6565b60405180910390fd5b6110388484848403610dea565b5b50505050565b600073ffffffffffffffffffffffffffffffffffffffff168373ffffffffffffffffffffffffffffffffffffffff16036110ae576040517f08c379a00000000000000000000000000000000000000000000000000000000081526004016110a590612048565b60405180910390fd5b600073ffffffffffffffffffffffffffffffffffffffff168273ffffffffffffffffffffffffffffffffffffffff160361111d576040517f08c379a0000000000000000000000000000000000000000000000000000000008152600401611114906120da565b60405180910390fd5b6111288383836115d8565b60008060008573ffffffffffffffffffffffffffffffffffffffff1673ffffffffffffffffffffffffffffffffffffffff168152602001908152602001600020549050818110156111ae576040517f08c379a00000000000000000000000000000000000000000000000000000000081526004016111a59061216c565b60405180910390fd5b8181036000808673ffffffffffffffffffffffffffffffffffffffff1673ffffffffffffffffffffffffffffffffffffffff16815260200190815260200160002081905550816000808573ffffffffffffffffffffffffffffffffffffffff1673ffffffffffffffffffffffffffffffffffffffff168152602001908152602001600020600082825401925050819055508273ffffffffffffffffffffffffffffffffffffffff168473ffffffffffffffffffffffffffffffffffffffff167fddf252ad1be2c89b69c2b068fc378daa952ba7f163c4a11628f55a4df523b3ef8460405161129c91906117b2565b60405180910390a36112af8484846115dd565b50505050565b600073ffffffffffffffffffffffffffffffffffffffff168273ffffffffffffffffffffffffffffffffffffffff1603611324576040517f08c379a000000000000000000000000000000000000000000000000000000000815260040161131b906121d8565b60405180910390fd5b611330600083836115d8565b80600260008282546113429190611c3c565b92505081905550806000808473ffffffffffffffffffffffffffffffffffffffff1673ffffffffffffffffffffffffffffffffffffffff168152602001908152602001600020600082825401925050819055508173ffffffffffffffffffffffffffffffffffffffff16600073ffffffffffffffffffffffffffffffffffffffff167fddf252ad1be2c89b69c2b068fc378daa952ba7f163c4a11628f55a4df523b3ef836040516113f391906117b2565b60405180910390a3611407600083836115dd565b5050565b600073ffffffffffffffffffffffffffffffffffffffff168273ffffffffffffffffffffffffffffffffffffffff160361147a576040517f08c379a00000000000000000000000000000000000000000000000000000000081526004016114719061226a565b60405180910390fd5b611486826000836115d8565b60008060008473ffffffffffffffffffffffffffffffffffffffff1673ffffffffffffffffffffffffffffffffffffffff1681526020019081526020016000205490508181101561150c576040517f08c379a0000000000000000000000000000000000000000000000000000000008152600401611503906122fc565b60405180910390fd5b8181036000808573ffffffffffffffffffffffffffffffffffffffff1673ffffffffffffffffffffffffffffffffffffffff1681526020019081526020016000208190555081600260008282540392505081905550600073ffffffffffffffffffffffffffffffffffffffff168373ffffffffffffffffffffffffffffffffffffffff167fddf252ad1be2c89b69c2b068fc378daa952ba7f163c4a11628f55a4df523b3ef846040516115bf91906117b2565b60405180910390a36115d3836000846115dd565b505050565b505050565b505050565b600081519050919050565b600082825260208201905092915050565b60005b8381101561161c578082015181840152602081019050611601565b60008484015250505050565b6000601f19601f8301169050919050565b6000611644826115e2565b61164e81856115ed565b935061165e8185602086016115fe565b61166781611628565b840191505092915050565b6000602082019050818103600083015261168c8184611639565b905092915050565b600080fd5b600073ffffffffffffffffffffffffffffffffffffffff82169050919050565b60006116c482611699565b9050919050565b6116d4816116b9565b81146116df57600080fd5b50565b6000813590506116f1816116cb565b92915050565b6000819050919050565b61170a816116f7565b811461171557600080fd5b50565b60008135905061172781611701565b92915050565b6000806040838503121561174457611743611694565b5b6000611752858286016116e2565b925050602061176385828601611718565b9150509250929050565b60008115159050919050565b6117828161176d565b82525050565b600060208201905061179d6000830184611779565b92915050565b6117ac816116f7565b82525050565b60006020820190506117c760008301846117a3565b92915050565b600080604083850312156117e4576117e3611694565b5b60006117f2858286016116e2565b9250506020611803858286016116e2565b9150509250929050565b60008060006060848603121561182657611825611694565b5b6000611834868287016116e2565b9350506020611845868287016116e2565b925050604061185686828701611718565b9150509250925092565b60006020828403121561187657611875611694565b5b6000611884848285016116e2565b91505092915050565b600060ff82169050919050565b6118a38161188d565b82525050565b60006020820190506118be600083018461189a565b92915050565b6000602082840312156118da576118d9611694565b5b60006118e884828501611718565b91505092915050565b600081519050919050565b600082825260208201905092915050565b6000819050602082019050919050565b611926816116b9565b82525050565b6000611938838361191d565b60208301905092915050565b6000602082019050919050565b600061195c826118f1565b61196681856118fc565b93506119718361190d565b8060005b838110156119a2578151611989888261192c565b975061199483611944565b925050600181019050611975565b5085935050505092915050565b600060208201905081810360008301526119c98184611951565b905092915050565b6119da816116b9565b82525050565b60006020820190506119f560008301846119d1565b92915050565b7f4e487b7100000000000000000000000000000000000000000000000000000000600052602260045260246000fd5b60006002820490506001821680611a4257607f821691505b602082108103611a5557611a546119fb565b5b50919050565b7f5265656e7472616e637947756172643a207265656e7472616e742063616c6c00600082015250565b6000611a91601f836115ed565b9150611a9c82611a5b565b602082019050919050565b60006020820190508181036000830152611ac081611a84565b9050919050565b7f4f6e6c792061646d696e2063616e2072656d6f76652061206d696e7465720000600082015250565b6000611afd601e836115ed565b9150611b0882611ac7565b602082019050919050565b60006020820190508181036000830152611b2c81611af0565b9050919050565b7f4e487b7100000000000000000000000000000000000000000000000000000000600052603260045260246000fd5b7f4e487b7100000000000000000000000000000000000000000000000000000000600052601160045260246000fd5b6000611b9c826116f7565b9150611ba7836116f7565b9250828203905081811115611bbf57611bbe611b62565b5b92915050565b7f4e487b7100000000000000000000000000000000000000000000000000000000600052603160045260246000fd5b6000611bff826116f7565b91507fffffffffffffffffffffffffffffffffffffffffffffffffffffffffffffffff8203611c3157611c30611b62565b5b600182019050919050565b6000611c47826116f7565b9150611c52836116f7565b9250828201905080821115611c6a57611c69611b62565b5b92915050565b7f556e617574686f72697a65642061636365737300000000000000000000000000600082015250565b6000611ca66013836115ed565b9150611cb182611c70565b602082019050919050565b60006020820190508181036000830152611cd581611c99565b9050919050565b7f4f6e6c792061646d696e2063616e206164642061206d696e7465720000000000600082015250565b6000611d12601b836115ed565b9150611d1d82611cdc565b602082019050919050565b60006020820190508181036000830152611d4181611d05565b9050919050565b7f496e76616c696420616464726573730000000000000000000000000000000000600082015250565b6000611d7e600f836115ed565b9150611d8982611d48565b602082019050919050565b60006020820190508181036000830152611dad81611d71565b9050919050565b7f45524332303a2064656372656173656420616c6c6f77616e63652062656c6f7760008201527f207a65726f000000000000000000000000000000000000000000000000000000602082015250565b6000611e106025836115ed565b9150611e1b82611db4565b604082019050919050565b60006020820190508181036000830152611e3f81611e03565b9050919050565b7f45524332303a20617070726f76652066726f6d20746865207a65726f2061646460008201527f7265737300000000000000000000000000000000000000000000000000000000602082015250565b6000611ea26024836115ed565b9150611ead82611e46565b604082019050919050565b60006020820190508181036000830152611ed181611e95565b9050919050565b7f45524332303a20617070726f766520746f20746865207a65726f20616464726560008201527f7373000000000000000000000000000000000000000000000000000000000000602082015250565b6000611f346022836115ed565b9150611f3f82611ed8565b604082019050919050565b60006020820190508181036000830152611f6381611f27565b9050919050565b7f45524332303a20696e73756666696369656e7420616c6c6f77616e6365000000600082015250565b6000611fa0601d836115ed565b9150611fab82611f6a565b602082019050919050565b60006020820190508181036000830152611fcf81611f93565b9050919050565b7f45524332303a207472616e736665722066726f6d20746865207a65726f20616460008201527f6472657373000000000000000000000000000000000000000000000000000000602082015250565b60006120326025836115ed565b915061203d82611fd6565b604082019050919050565b6000602082019050818103600083015261206181612025565b9050919050565b7f45524332303a207472616e7366657220746f20746865207a65726f206164647260008201527f6573730000000000000000000000000000000000000000000000000000000000602082015250565b60006120c46023836115ed565b91506120cf82612068565b604082019050919050565b600060208201905081810360008301526120f3816120b7565b9050919050565b7f45524332303a207472616e7366657220616d6f756e742065786365656473206260008201527f616c616e63650000000000000000000000000000000000000000000000000000602082015250565b60006121566026836115ed565b9150612161826120fa565b604082019050919050565b6000602082019050818103600083015261218581612149565b9050919050565b7f45524332303a206d696e7420746f20746865207a65726f206164647265737300600082015250565b60006121c2601f836115ed565b91506121cd8261218c565b602082019050919050565b600060208201905081810360008301526121f1816121b5565b9050919050565b7f45524332303a206275726e2066726f6d20746865207a65726f2061646472657360008201527f7300000000000000000000000000000000000000000000000000000000000000602082015250565b60006122546021836115ed565b915061225f826121f8565b604082019050919050565b6000602082019050818103600083015261228381612247565b9050919050565b7f45524332303a206275726e20616d6f756e7420657863656564732062616c616e60008201527f6365000000000000000000000000000000000000000000000000000000000000602082015250565b60006122e66022836115ed565b91506122f18261228a565b604082019050919050565b60006020820190508181036000830152612315816122d9565b905091905056fea2646970667358221220a203567d660ad38286c0030a1d26c977761b50f56eb7ce6cb4cda1991203a81964736f6c63430008130033",
  "linkReferences": {},
  "deployedLinkReferences": {}
}