{
  "_format": "hh-sol-artifact-1",
  "contractName": "SocialDesgToken",
  "sourceName": "contracts/MyToken.sol",
  "abi": [
    {
      "inputs": [],
      "stateMutability": "nonpayable",
      "type": "constructor"
    },
    {
      "anonymous": false,
      "inputs": [
        {
          "indexed": true,
          "internalType": "address",
          "name": "owner",
          "type": "address"
        },
        {
          "indexed": true,
          "internalType": "address",
          "name": "spender",
          "type": "address"
        },
        {
          "indexed": false,
          "internalType": "uint256",
          "name": "value",
          "type": "uint256"
        }
      ],
      "name": "Approval",
      "type": "event"
    },
    {
      "anonymous": false,
      "inputs": [
        {
          "indexed": true,
          "internalType": "address",
          "name": "from",
          "type": "address"
        },
        {
          "indexed": true,
          "internalType": "address",
          "name": "to",
          "type": "address"
        },
        {
          "indexed": false,
          "internalType": "uint256",
          "name": "value",
          "type": "uint256"
        }
      ],
      "name": "Transfer",
      "type": "event"
    },
    {
      "inputs": [
        {
          "internalType": "address",
          "name": "_newAddress",
          "type": "address"
        }
      ],
      "name": "addMinter",
      "outputs": [],
      "stateMutability": "nonpayable",
      "type": "function"
    },
    {
      "inputs": [],
      "name": "admin",
      "outputs": [
        {
          "internalType": "address",
          "name": "",
          "type": "address"
        }
      ],
      "stateMutability": "view",
      "type": "function"
    },
    {
      "inputs": [
        {
          "internalType": "address",
          "name": "owner",
          "type": "address"
        },
        {
          "internalType": "address",
          "name": "spender",
          "type": "address"
        }
      ],
      "name": "allowance",
      "outputs": [
        {
          "internalType": "uint256",
          "name": "",
          "type": "uint256"
        }
      ],
      "stateMutability": "view",
      "type": "function"
    },
    {
      "inputs": [
        {
          "internalType": "address",
          "name": "spender",
          "type": "address"
        },
        {
          "internalType": "uint256",
          "name": "amount",
          "type": "uint256"
        }
      ],
      "name": "approve",
      "outputs": [
        {
          "internalType": "bool",
          "name": "",
          "type": "bool"
        }
      ],
      "stateMutability": "nonpayable",
      "type": "function"
    },
    {
      "inputs": [
        {
          "internalType": "address",
          "name": "account",
          "type": "address"
        }
      ],
      "name": "balanceOf",
      "outputs": [
        {
          "internalType": "uint256",
          "name": "",
          "type": "uint256"
        }
      ],
      "stateMutability": "view",
      "type": "function"
    },
    {
      "inputs": [
        {
          "internalType": "uint256",
          "name": "amount",
          "type": "uint256"
        }
      ],
      "name": "burn",
      "outputs": [],
      "stateMutability": "nonpayable",
      "type": "function"
    },
    {
      "inputs": [],
      "name": "decimals",
      "outputs": [
        {
          "internalType": "uint8",
          "name": "",
          "type": "uint8"
        }
      ],
      "stateMutability": "view",
      "type": "function"
    },
    {
      "inputs": [
        {
          "internalType": "address",
          "name": "spender",
          "type": "address"
        },
        {
          "internalType": "uint256",
          "name": "subtractedValue",
          "type": "uint256"
        }
      ],
      "name": "decreaseAllowance",
      "outputs": [
        {
          "internalType": "bool",
          "name": "",
          "type": "bool"
        }
      ],
      "stateMutability": "nonpayable",
      "type": "function"
    },
    {
      "inputs": [],
      "name": "getMinters",
      "outputs": [
        {
          "internalType": "address[]",
          "name": "",
          "type": "address[]"
        }
      ],
      "stateMutability": "view",
      "type": "function"
    },
    {
      "inputs": [
        {
          "internalType": "address",
          "name": "from",
          "type": "address"
        },
        {
          "internalType": "address",
          "name": "to",
          "type": "address"
        }
      ],
      "name": "getUserAllowance",
      "outputs": [
        {
          "internalType": "uint256",
          "name": "",
          "type": "uint256"
        }
      ],
      "stateMutability": "view",
      "type": "function"
    },
    {
      "inputs": [
        {
          "internalType": "address",
          "name": "to",
          "type": "address"
        },
        {
          "internalType": "uint256",
          "name": "amount",
          "type": "uint256"
        }
      ],
      "name": "giftToken",
      "outputs": [],
      "stateMutability": "nonpayable",
      "type": "function"
    },
    {
      "inputs": [
        {
          "internalType": "address",
          "name": "spender",
          "type": "address"
        },
        {
          "internalType": "uint256",
          "name": "addedValue",
          "type": "uint256"
        }
      ],
      "name": "increaseAllowance",
      "outputs": [
        {
          "internalType": "bool",
          "name": "",
          "type": "bool"
        }
      ],
      "stateMutability": "nonpayable",
      "type": "function"
    },
    {
      "inputs": [
        {
          "internalType": "address",
          "name": "to",
          "type": "address"
        },
        {
          "internalType": "uint256",
          "name": "amount",
          "type": "uint256"
        }
      ],
      "name": "mint",
      "outputs": [],
      "stateMutability": "nonpayable",
      "type": "function"
    },
    {
      "inputs": [
        {
          "internalType": "uint256",
          "name": "",
          "type": "uint256"
        }
      ],
      "name": "minters",
      "outputs": [
        {
          "internalType": "address",
          "name": "",
          "type": "address"
        }
      ],
      "stateMutability": "view",
      "type": "function"
    },
    {
      "inputs": [],
      "name": "name",
      "outputs": [
        {
          "internalType": "string",
          "name": "",
          "type": "string"
        }
      ],
      "stateMutability": "view",
      "type": "function"
    },
    {
      "inputs": [
        {
          "internalType": "address",
          "name": "_addressToRemove",
          "type": "address"
        }
      ],
      "name": "removeMinter",
      "outputs": [],
      "stateMutability": "nonpayable",
      "type": "function"
    },
    {
      "inputs": [],
      "name": "symbol",
      "outputs": [
        {
          "internalType": "string",
          "name": "",
          "type": "string"
        }
      ],
      "stateMutability": "view",
      "type": "function"
    },
    {
      "inputs": [
        {
          "internalType": "address",
          "name": "to",
          "type": "address"
        },
        {
          "internalType": "uint256",
          "name": "amount",
          "type": "uint256"
        }
      ],
      "name": "tokenTransfer",
      "outputs": [],
      "stateMutability": "nonpayable",
      "type": "function"
    },
    {
      "inputs": [],
      "name": "totalSupply",
      "outputs": [
        {
          "internalType": "uint256",
          "name": "",
          "type": "uint256"
        }
      ],
      "stateMutability": "view",
      "type": "function"
    },
    {
      "inputs": [
        {
          "internalType": "address",
          "name": "to",
          "type": "address"
        },
        {
          "internalType": "uint256",
          "name": "amount",
          "type": "uint256"
        }
      ],
      "name": "transfer",
      "outputs": [
        {
          "internalType": "bool",
          "name": "",
          "type": "bool"
        }
      ],
      "stateMutability": "nonpayable",
      "type": "function"
    },
    {
      "inputs": [
        {
          "internalType": "address",
          "name": "from",
          "type": "address"
        },
        {
          "internalType": "address",
          "name": "to",
          "type": "address"
        },
        {
          "internalType": "uint256",
          "name": "amount",
          "type": "uint256"
        }
      ],
      "name": "transferFrom",
      "outputs": [
        {
          "internalType": "bool",
          "name": "",
          "type": "bool"
        }
      ],
      "stateMutability": "nonpayable",
      "type": "function"
    }
  ],
  "bytecode": "0x60806040523480156200001157600080fd5b506040518060400160405280600981526020017f44657367546f6b656e00000000000000000000000000000000000000000000008152506040518060400160405280600481526020017f4453544e000000000000000000000000000000000000000000000000000000008152508160039080519060200190620000969291906200028f565b508060049080519060200190620000af9291906200028f565b505050620000d0336b033b2e3c9fd0803ce80000006200011760201b60201c565b33600660006101000a81548173ffffffffffffffffffffffffffffffffffffffff021916908373ffffffffffffffffffffffffffffffffffffffff160217905550620004eb565b600073ffffffffffffffffffffffffffffffffffffffff168273ffffffffffffffffffffffffffffffffffffffff1614156200018a576040517f08c379a00000000000000000000000000000000000000000000000000000000081526004016200018190620003a0565b60405180910390fd5b6200019e600083836200028560201b60201c565b8060026000828254620001b29190620003fb565b92505081905550806000808473ffffffffffffffffffffffffffffffffffffffff1673ffffffffffffffffffffffffffffffffffffffff168152602001908152602001600020600082825401925050819055508173ffffffffffffffffffffffffffffffffffffffff16600073ffffffffffffffffffffffffffffffffffffffff167fddf252ad1be2c89b69c2b068fc378daa952ba7f163c4a11628f55a4df523b3ef8360405162000265919062000469565b60405180910390a362000281600083836200028a60201b60201c565b5050565b505050565b505050565b8280546200029d90620004b5565b90600052602060002090601f016020900481019282620002c157600085556200030d565b82601f10620002dc57805160ff19168380011785556200030d565b828001600101855582156200030d579182015b828111156200030c578251825591602001919060010190620002ef565b5b5090506200031c919062000320565b5090565b5b808211156200033b57600081600090555060010162000321565b5090565b600082825260208201905092915050565b7f45524332303a206d696e7420746f20746865207a65726f206164647265737300600082015250565b600062000388601f836200033f565b9150620003958262000350565b602082019050919050565b60006020820190508181036000830152620003bb8162000379565b9050919050565b6000819050919050565b7f4e487b7100000000000000000000000000000000000000000000000000000000600052601160045260246000fd5b60006200040882620003c2565b91506200041583620003c2565b9250827fffffffffffffffffffffffffffffffffffffffffffffffffffffffffffffffff038211156200044d576200044c620003cc565b5b828201905092915050565b6200046381620003c2565b82525050565b600060208201905062000480600083018462000458565b92915050565b7f4e487b7100000000000000000000000000000000000000000000000000000000600052602260045260246000fd5b60006002820490506001821680620004ce57607f821691505b60208210811415620004e557620004e462000486565b5b50919050565b61238a80620004fb6000396000f3fe608060405234801561001057600080fd5b50600436106101375760003560e01c806342966c68116100b857806395d89b411161007c57806395d89b4114610360578063983b2d561461037e578063a457c2d71461039a578063a9059cbb146103ca578063dd62ed3e146103fa578063f851a4401461042a57610137565b806342966c68146102aa57806368cdafe6146102c65780636b32810b146102e257806370a08231146103005780638623ec7b1461033057610137565b806323b872dd116100ff57806323b872dd146101f45780633092afd514610224578063313ce56714610240578063395093511461025e57806340c10f191461028e57610137565b806306fdde031461013c578063095ea7b31461015a57806318160ddd1461018a5780631f24285d146101a857806322af056e146101c4575b600080fd5b610144610448565b6040516101519190611686565b60405180910390f35b610174600480360381019061016f9190611741565b6104da565b604051610181919061179c565b60405180910390f35b6101926104fd565b60405161019f91906117c6565b60405180910390f35b6101c260048036038101906101bd9190611741565b610507565b005b6101de60048036038101906101d991906117e1565b61056c565b6040516101eb91906117c6565b60405180910390f35b61020e60048036038101906102099190611821565b610580565b60405161021b919061179c565b60405180910390f35b61023e60048036038101906102399190611874565b6105af565b005b6102486107d0565b60405161025591906118bd565b60405180910390f35b61027860048036038101906102739190611741565b6107d9565b604051610285919061179c565b60405180910390f35b6102a860048036038101906102a39190611741565b610810565b005b6102c460048036038101906102bf91906118d8565b6108ff565b005b6102e060048036038101906102db9190611741565b61090c565b005b6102ea610993565b6040516102f791906119c3565b60405180910390f35b61031a60048036038101906103159190611874565b610a21565b60405161032791906117c6565b60405180910390f35b61034a600480360381019061034591906118d8565b610a69565b60405161035791906119f4565b60405180910390f35b610368610aa8565b6040516103759190611686565b60405180910390f35b61039860048036038101906103939190611874565b610b3a565b005b6103b460048036038101906103af9190611741565b610ca0565b6040516103c1919061179c565b60405180910390f35b6103e460048036038101906103df9190611741565b610d17565b6040516103f1919061179c565b60405180910390f35b610414600480360381019061040f91906117e1565b610d3a565b60405161042191906117c6565b60405180910390f35b610432610dc1565b60405161043f91906119f4565b60405180910390f35b60606003805461045790611a3e565b80601f016020809104026020016040519081016040528092919081815260200182805461048390611a3e565b80156104d05780601f106104a5576101008083540402835291602001916104d0565b820191906000526020600020905b8154815290600101906020018083116104b357829003601f168201915b5050505050905090565b6000806104e5610de7565b90506104f2818585610def565b600191505092915050565b6000600254905090565b6002600554141561054d576040517f08c379a000000000000000000000000000000000000000000000000000000000815260040161054490611abc565b60405180910390fd5b600260058190555061055f8282610d17565b5060016005819055505050565b60006105788383610d3a565b905092915050565b60008061058b610de7565b9050610598858285610fba565b6105a3858585611046565b60019150509392505050565b600660009054906101000a900473ffffffffffffffffffffffffffffffffffffffff1673ffffffffffffffffffffffffffffffffffffffff163373ffffffffffffffffffffffffffffffffffffffff161461063f576040517f08c379a000000000000000000000000000000000000000000000000000000000815260040161063690611b28565b60405180910390fd5b60005b6007805490508110156107cc578173ffffffffffffffffffffffffffffffffffffffff166007828154811061067a57610679611b48565b5b9060005260206000200160009054906101000a900473ffffffffffffffffffffffffffffffffffffffff1673ffffffffffffffffffffffffffffffffffffffff1614156107b957600760016007805490506106d59190611ba6565b815481106106e6576106e5611b48565b5b9060005260206000200160009054906101000a900473ffffffffffffffffffffffffffffffffffffffff166007828154811061072557610724611b48565b5b9060005260206000200160006101000a81548173ffffffffffffffffffffffffffffffffffffffff021916908373ffffffffffffffffffffffffffffffffffffffff160217905550600780548061077f5761077e611bda565b5b6001900381819060005260206000200160006101000a81549073ffffffffffffffffffffffffffffffffffffffff021916905590556107cc565b80806107c490611c09565b915050610642565b5050565b60006012905090565b6000806107e4610de7565b90506108058185856107f68589610d3a565b6108009190611c52565b610def565b600191505092915050565b6000805b6007805490508110156108af573373ffffffffffffffffffffffffffffffffffffffff166007828154811061084c5761084b611b48565b5b9060005260206000200160009054906101000a900473ffffffffffffffffffffffffffffffffffffffff1673ffffffffffffffffffffffffffffffffffffffff16141561089c57600191506108af565b80806108a790611c09565b915050610814565b50806108f0576040517f08c379a00000000000000000000000000000000000000000000000000000000081526004016108e790611cf4565b60405180910390fd5b6108fa83836112be565b505050565b6109093382611415565b50565b60026005541415610952576040517f08c379a000000000000000000000000000000000000000000000000000000000815260040161094990611abc565b60405180910390fd5b6002600581905550610987600660009054906101000a900473ffffffffffffffffffffffffffffffffffffffff168383611046565b60016005819055505050565b60606007805480602002602001604051908101604052809291908181526020018280548015610a1757602002820191906000526020600020905b8160009054906101000a900473ffffffffffffffffffffffffffffffffffffffff1673ffffffffffffffffffffffffffffffffffffffff16815260200190600101908083116109cd575b5050505050905090565b60008060008373ffffffffffffffffffffffffffffffffffffffff1673ffffffffffffffffffffffffffffffffffffffff168152602001908152602001600020549050919050565b60078181548110610a7957600080fd5b906000526020600020016000915054906101000a900473ffffffffffffffffffffffffffffffffffffffff1681565b606060048054610ab790611a3e565b80601f0160208091040260200160405190810160405280929190818152602001828054610ae390611a3e565b8015610b305780601f10610b0557610100808354040283529160200191610b30565b820191906000526020600020905b815481529060010190602001808311610b1357829003601f168201915b5050505050905090565b600660009054906101000a900473ffffffffffffffffffffffffffffffffffffffff1673ffffffffffffffffffffffffffffffffffffffff163373ffffffffffffffffffffffffffffffffffffffff1614610bca576040517f08c379a0000000000000000000000000000000000000000000000000000000008152600401610bc190611d60565b60405180910390fd5b600073ffffffffffffffffffffffffffffffffffffffff168173ffffffffffffffffffffffffffffffffffffffff161415610c3a576040517f08c379a0000000000000000000000000000000000000000000000000000000008152600401610c3190611dcc565b60405180910390fd5b6007819080600181540180825580915050600190039060005260206000200160009091909190916101000a81548173ffffffffffffffffffffffffffffffffffffffff021916908373ffffffffffffffffffffffffffffffffffffffff16021790555050565b600080610cab610de7565b90506000610cb98286610d3a565b905083811015610cfe576040517f08c379a0000000000000000000000000000000000000000000000000000000008152600401610cf590611e5e565b60405180910390fd5b610d0b8286868403610def565b60019250505092915050565b600080610d22610de7565b9050610d2f818585611046565b600191505092915050565b6000600160008473ffffffffffffffffffffffffffffffffffffffff1673ffffffffffffffffffffffffffffffffffffffff16815260200190815260200160002060008373ffffffffffffffffffffffffffffffffffffffff1673ffffffffffffffffffffffffffffffffffffffff16815260200190815260200160002054905092915050565b600660009054906101000a900473ffffffffffffffffffffffffffffffffffffffff1681565b600033905090565b600073ffffffffffffffffffffffffffffffffffffffff168373ffffffffffffffffffffffffffffffffffffffff161415610e5f576040517f08c379a0000000000000000000000000000000000000000000000000000000008152600401610e5690611ef0565b60405180910390fd5b600073ffffffffffffffffffffffffffffffffffffffff168273ffffffffffffffffffffffffffffffffffffffff161415610ecf576040517f08c379a0000000000000000000000000000000000000000000000000000000008152600401610ec690611f82565b60405180910390fd5b80600160008573ffffffffffffffffffffffffffffffffffffffff1673ffffffffffffffffffffffffffffffffffffffff16815260200190815260200160002060008473ffffffffffffffffffffffffffffffffffffffff1673ffffffffffffffffffffffffffffffffffffffff168152602001908152602001600020819055508173ffffffffffffffffffffffffffffffffffffffff168373ffffffffffffffffffffffffffffffffffffffff167f8c5be1e5ebec7d5bd14f71427d1e84f3dd0314c0f7b2291e5b200ac8c7c3b92583604051610fad91906117c6565b60405180910390a3505050565b6000610fc68484610d3a565b90507fffffffffffffffffffffffffffffffffffffffffffffffffffffffffffffffff81146110405781811015611032576040517f08c379a000000000000000000000000000000000000000000000000000000000815260040161102990611fee565b60405180910390fd5b61103f8484848403610def565b5b50505050565b600073ffffffffffffffffffffffffffffffffffffffff168373ffffffffffffffffffffffffffffffffffffffff1614156110b6576040517f08c379a00000000000000000000000000000000000000000000000000000000081526004016110ad90612080565b60405180910390fd5b600073ffffffffffffffffffffffffffffffffffffffff168273ffffffffffffffffffffffffffffffffffffffff161415611126576040517f08c379a000000000000000000000000000000000000000000000000000000000815260040161111d90612112565b60405180910390fd5b6111318383836115e3565b60008060008573ffffffffffffffffffffffffffffffffffffffff1673ffffffffffffffffffffffffffffffffffffffff168152602001908152602001600020549050818110156111b7576040517f08c379a00000000000000000000000000000000000000000000000000000000081526004016111ae906121a4565b60405180910390fd5b8181036000808673ffffffffffffffffffffffffffffffffffffffff1673ffffffffffffffffffffffffffffffffffffffff16815260200190815260200160002081905550816000808573ffffffffffffffffffffffffffffffffffffffff1673ffffffffffffffffffffffffffffffffffffffff168152602001908152602001600020600082825401925050819055508273ffffffffffffffffffffffffffffffffffffffff168473ffffffffffffffffffffffffffffffffffffffff167fddf252ad1be2c89b69c2b068fc378daa952ba7f163c4a11628f55a4df523b3ef846040516112a591906117c6565b60405180910390a36112b88484846115e8565b50505050565b600073ffffffffffffffffffffffffffffffffffffffff168273ffffffffffffffffffffffffffffffffffffffff16141561132e576040517f08c379a000000000000000000000000000000000000000000000000000000000815260040161132590612210565b60405180910390fd5b61133a600083836115e3565b806002600082825461134c9190611c52565b92505081905550806000808473ffffffffffffffffffffffffffffffffffffffff1673ffffffffffffffffffffffffffffffffffffffff168152602001908152602001600020600082825401925050819055508173ffffffffffffffffffffffffffffffffffffffff16600073ffffffffffffffffffffffffffffffffffffffff167fddf252ad1be2c89b69c2b068fc378daa952ba7f163c4a11628f55a4df523b3ef836040516113fd91906117c6565b60405180910390a3611411600083836115e8565b5050565b600073ffffffffffffffffffffffffffffffffffffffff168273ffffffffffffffffffffffffffffffffffffffff161415611485576040517f08c379a000000000000000000000000000000000000000000000000000000000815260040161147c906122a2565b60405180910390fd5b611491826000836115e3565b60008060008473ffffffffffffffffffffffffffffffffffffffff1673ffffffffffffffffffffffffffffffffffffffff16815260200190815260200160002054905081811015611517576040517f08c379a000000000000000000000000000000000000000000000000000000000815260040161150e90612334565b60405180910390fd5b8181036000808573ffffffffffffffffffffffffffffffffffffffff1673ffffffffffffffffffffffffffffffffffffffff1681526020019081526020016000208190555081600260008282540392505081905550600073ffffffffffffffffffffffffffffffffffffffff168373ffffffffffffffffffffffffffffffffffffffff167fddf252ad1be2c89b69c2b068fc378daa952ba7f163c4a11628f55a4df523b3ef846040516115ca91906117c6565b60405180910390a36115de836000846115e8565b505050565b505050565b505050565b600081519050919050565b600082825260208201905092915050565b60005b8381101561162757808201518184015260208101905061160c565b83811115611636576000848401525b50505050565b6000601f19601f8301169050919050565b6000611658826115ed565b61166281856115f8565b9350611672818560208601611609565b61167b8161163c565b840191505092915050565b600060208201905081810360008301526116a0818461164d565b905092915050565b600080fd5b600073ffffffffffffffffffffffffffffffffffffffff82169050919050565b60006116d8826116ad565b9050919050565b6116e8816116cd565b81146116f357600080fd5b50565b600081359050611705816116df565b92915050565b6000819050919050565b61171e8161170b565b811461172957600080fd5b50565b60008135905061173b81611715565b92915050565b60008060408385031215611758576117576116a8565b5b6000611766858286016116f6565b92505060206117778582860161172c565b9150509250929050565b60008115159050919050565b61179681611781565b82525050565b60006020820190506117b1600083018461178d565b92915050565b6117c08161170b565b82525050565b60006020820190506117db60008301846117b7565b92915050565b600080604083850312156117f8576117f76116a8565b5b6000611806858286016116f6565b9250506020611817858286016116f6565b9150509250929050565b60008060006060848603121561183a576118396116a8565b5b6000611848868287016116f6565b9350506020611859868287016116f6565b925050604061186a8682870161172c565b9150509250925092565b60006020828403121561188a576118896116a8565b5b6000611898848285016116f6565b91505092915050565b600060ff82169050919050565b6118b7816118a1565b82525050565b60006020820190506118d260008301846118ae565b92915050565b6000602082840312156118ee576118ed6116a8565b5b60006118fc8482850161172c565b91505092915050565b600081519050919050565b600082825260208201905092915050565b6000819050602082019050919050565b61193a816116cd565b82525050565b600061194c8383611931565b60208301905092915050565b6000602082019050919050565b600061197082611905565b61197a8185611910565b935061198583611921565b8060005b838110156119b657815161199d8882611940565b97506119a883611958565b925050600181019050611989565b5085935050505092915050565b600060208201905081810360008301526119dd8184611965565b905092915050565b6119ee816116cd565b82525050565b6000602082019050611a0960008301846119e5565b92915050565b7f4e487b7100000000000000000000000000000000000000000000000000000000600052602260045260246000fd5b60006002820490506001821680611a5657607f821691505b60208210811415611a6a57611a69611a0f565b5b50919050565b7f5265656e7472616e637947756172643a207265656e7472616e742063616c6c00600082015250565b6000611aa6601f836115f8565b9150611ab182611a70565b602082019050919050565b60006020820190508181036000830152611ad581611a99565b9050919050565b7f4f6e6c792061646d696e2063616e2072656d6f76652061206d696e7465720000600082015250565b6000611b12601e836115f8565b9150611b1d82611adc565b602082019050919050565b60006020820190508181036000830152611b4181611b05565b9050919050565b7f4e487b7100000000000000000000000000000000000000000000000000000000600052603260045260246000fd5b7f4e487b7100000000000000000000000000000000000000000000000000000000600052601160045260246000fd5b6000611bb18261170b565b9150611bbc8361170b565b925082821015611bcf57611bce611b77565b5b828203905092915050565b7f4e487b7100000000000000000000000000000000000000000000000000000000600052603160045260246000fd5b6000611c148261170b565b91507fffffffffffffffffffffffffffffffffffffffffffffffffffffffffffffffff821415611c4757611c46611b77565b5b600182019050919050565b6000611c5d8261170b565b9150611c688361170b565b9250827fffffffffffffffffffffffffffffffffffffffffffffffffffffffffffffffff03821115611c9d57611c9c611b77565b5b828201905092915050565b7f556e617574686f72697a65642061636365737300000000000000000000000000600082015250565b6000611cde6013836115f8565b9150611ce982611ca8565b602082019050919050565b60006020820190508181036000830152611d0d81611cd1565b9050919050565b7f4f6e6c792061646d696e2063616e206164642061206d696e7465720000000000600082015250565b6000611d4a601b836115f8565b9150611d5582611d14565b602082019050919050565b60006020820190508181036000830152611d7981611d3d565b9050919050565b7f496e76616c696420616464726573730000000000000000000000000000000000600082015250565b6000611db6600f836115f8565b9150611dc182611d80565b602082019050919050565b60006020820190508181036000830152611de581611da9565b9050919050565b7f45524332303a2064656372656173656420616c6c6f77616e63652062656c6f7760008201527f207a65726f000000000000000000000000000000000000000000000000000000602082015250565b6000611e486025836115f8565b9150611e5382611dec565b604082019050919050565b60006020820190508181036000830152611e7781611e3b565b9050919050565b7f45524332303a20617070726f76652066726f6d20746865207a65726f2061646460008201527f7265737300000000000000000000000000000000000000000000000000000000602082015250565b6000611eda6024836115f8565b9150611ee582611e7e565b604082019050919050565b60006020820190508181036000830152611f0981611ecd565b9050919050565b7f45524332303a20617070726f766520746f20746865207a65726f20616464726560008201527f7373000000000000000000000000000000000000000000000000000000000000602082015250565b6000611f6c6022836115f8565b9150611f7782611f10565b604082019050919050565b60006020820190508181036000830152611f9b81611f5f565b9050919050565b7f45524332303a20696e73756666696369656e7420616c6c6f77616e6365000000600082015250565b6000611fd8601d836115f8565b9150611fe382611fa2565b602082019050919050565b6000602082019050818103600083015261200781611fcb565b9050919050565b7f45524332303a207472616e736665722066726f6d20746865207a65726f20616460008201527f6472657373000000000000000000000000000000000000000000000000000000602082015250565b600061206a6025836115f8565b91506120758261200e565b604082019050919050565b600060208201905081810360008301526120998161205d565b9050919050565b7f45524332303a207472616e7366657220746f20746865207a65726f206164647260008201527f6573730000000000000000000000000000000000000000000000000000000000602082015250565b60006120fc6023836115f8565b9150612107826120a0565b604082019050919050565b6000602082019050818103600083015261212b816120ef565b9050919050565b7f45524332303a207472616e7366657220616d6f756e742065786365656473206260008201527f616c616e63650000000000000000000000000000000000000000000000000000602082015250565b600061218e6026836115f8565b915061219982612132565b604082019050919050565b600060208201905081810360008301526121bd81612181565b9050919050565b7f45524332303a206d696e7420746f20746865207a65726f206164647265737300600082015250565b60006121fa601f836115f8565b9150612205826121c4565b602082019050919050565b60006020820190508181036000830152612229816121ed565b9050919050565b7f45524332303a206275726e2066726f6d20746865207a65726f2061646472657360008201527f7300000000000000000000000000000000000000000000000000000000000000602082015250565b600061228c6021836115f8565b915061229782612230565b604082019050919050565b600060208201905081810360008301526122bb8161227f565b9050919050565b7f45524332303a206275726e20616d6f756e7420657863656564732062616c616e60008201527f6365000000000000000000000000000000000000000000000000000000000000602082015250565b600061231e6022836115f8565b9150612329826122c2565b604082019050919050565b6000602082019050818103600083015261234d81612311565b905091905056fea26469706673582212205b125c0b89e8563fa13ff29080fded666afc397e33d866593fa964b923917a2a64736f6c63430008090033",
  "linkReferences": {},
  "deployedLinkReferences": {}
}