{
  "_format": "hh-sol-artifact-1",
  "contractName": "UserRegistration",
  "sourceName": "contracts/UserRegistration.sol",
  "abi": [
    {
      "inputs": [],
      "stateMutability": "nonpayable",
      "type": "constructor"
    },
    {
      "anonymous": false,
      "inputs": [
        {
          "indexed": true,
          "internalType": "address",
          "name": "walletAddress",
          "type": "address"
        }
      ],
      "name": "UserDeleted",
      "type": "event"
    },
    {
      "anonymous": false,
      "inputs": [
        {
          "indexed": true,
          "internalType": "address",
          "name": "walletAddress",
          "type": "address"
        },
        {
          "indexed": false,
          "internalType": "string",
          "name": "name",
          "type": "string"
        }
      ],
      "name": "UserRegistered",
      "type": "event"
    },
    {
      "anonymous": false,
      "inputs": [
        {
          "indexed": true,
          "internalType": "address",
          "name": "walletAddress",
          "type": "address"
        },
        {
          "indexed": false,
          "internalType": "string",
          "name": "name",
          "type": "string"
        }
      ],
      "name": "UserUpdated",
      "type": "event"
    },
    {
      "inputs": [],
      "name": "deleteUser",
      "outputs": [],
      "stateMutability": "nonpayable",
      "type": "function"
    },
    {
      "inputs": [],
      "name": "getUserDetails",
      "outputs": [
        {
          "internalType": "string",
          "name": "",
          "type": "string"
        }
      ],
      "stateMutability": "view",
      "type": "function"
    },
    {
      "inputs": [
        {
          "internalType": "string",
          "name": "_name",
          "type": "string"
        }
      ],
      "name": "registerUser",
      "outputs": [],
      "stateMutability": "nonpayable",
      "type": "function"
    },
    {
      "inputs": [
        {
          "internalType": "string",
          "name": "_name",
          "type": "string"
        }
      ],
      "name": "updateUser",
      "outputs": [],
      "stateMutability": "nonpayable",
      "type": "function"
    },
    {
      "inputs": [
        {
          "internalType": "address",
          "name": "",
          "type": "address"
        }
      ],
      "name": "users",
      "outputs": [
        {
          "internalType": "address",
          "name": "walletAddress",
          "type": "address"
        },
        {
          "internalType": "string",
          "name": "name",
          "type": "string"
        }
      ],
      "stateMutability": "view",
      "type": "function"
    }
  ],
  "bytecode": "0x608060405234801561001057600080fd5b506001600081905550610e2f806100286000396000f3fe608060405234801561001057600080fd5b50600436106100575760003560e01c8063026ff05e1461005c5780630b4f12f614610066578063704f1b9414610082578063942886be1461009e578063a87430ba146100bc575b600080fd5b6100646100ed565b005b610080600480360381019061007b9190610a97565b61027d565b005b61009c60048036038101906100979190610a97565b6103bf565b005b6100a66105d7565b6040516100b39190610b68565b60405180910390f35b6100d660048036038101906100d19190610be8565b61078e565b6040516100e4929190610c24565b60405180910390f35b600073ffffffffffffffffffffffffffffffffffffffff16600160003373ffffffffffffffffffffffffffffffffffffffff1673ffffffffffffffffffffffffffffffffffffffff16815260200190815260200160002060000160009054906101000a900473ffffffffffffffffffffffffffffffffffffffff1673ffffffffffffffffffffffffffffffffffffffff1614156101bf576040517f08c379a00000000000000000000000000000000000000000000000000000000081526004016101b690610ca0565b60405180910390fd5b600160003373ffffffffffffffffffffffffffffffffffffffff1673ffffffffffffffffffffffffffffffffffffffff168152602001908152602001600020600080820160006101000a81549073ffffffffffffffffffffffffffffffffffffffff0219169055600182016000610236919061085a565b50503373ffffffffffffffffffffffffffffffffffffffff167f4bc56f1321288dfb5b416cb3a7fd188723979f9e866c91d88eccf7fca039d03960405160405180910390a2565b6000600160003373ffffffffffffffffffffffffffffffffffffffff1673ffffffffffffffffffffffffffffffffffffffff1681526020019081526020016000209050600073ffffffffffffffffffffffffffffffffffffffff168160000160009054906101000a900473ffffffffffffffffffffffffffffffffffffffff1673ffffffffffffffffffffffffffffffffffffffff161415610354576040517f08c379a000000000000000000000000000000000000000000000000000000000815260040161034b90610ca0565b60405180910390fd5b8181600101908051906020019061036c92919061089a565b503373ffffffffffffffffffffffffffffffffffffffff167fd6136f3cad7c60bfc24bbf1548f39f766ca8bce104bf9adde3deb6237dec51df836040516103b39190610b68565b60405180910390a25050565b60026000541415610405576040517f08c379a00000000000000000000000000000000000000000000000000000000081526004016103fc90610d0c565b60405180910390fd5b6002600081905550600073ffffffffffffffffffffffffffffffffffffffff16600160003373ffffffffffffffffffffffffffffffffffffffff1673ffffffffffffffffffffffffffffffffffffffff16815260200190815260200160002060000160009054906101000a900473ffffffffffffffffffffffffffffffffffffffff1673ffffffffffffffffffffffffffffffffffffffff16146104de576040517f08c379a00000000000000000000000000000000000000000000000000000000081526004016104d590610d78565b60405180910390fd5b6000600160003373ffffffffffffffffffffffffffffffffffffffff1673ffffffffffffffffffffffffffffffffffffffff1681526020019081526020016000209050338160000160006101000a81548173ffffffffffffffffffffffffffffffffffffffff021916908373ffffffffffffffffffffffffffffffffffffffff1602179055508181600101908051906020019061057c92919061089a565b503373ffffffffffffffffffffffffffffffffffffffff167f48cac28ad4dc618e15f4c2dd5e97751182f166de97b25618318b2112aa951a2f836040516105c39190610b68565b60405180910390a250600160008190555050565b60606000600160003373ffffffffffffffffffffffffffffffffffffffff1673ffffffffffffffffffffffffffffffffffffffff1681526020019081526020016000206040518060400160405290816000820160009054906101000a900473ffffffffffffffffffffffffffffffffffffffff1673ffffffffffffffffffffffffffffffffffffffff1673ffffffffffffffffffffffffffffffffffffffff16815260200160018201805461068b90610dc7565b80601f01602080910402602001604051908101604052809291908181526020018280546106b790610dc7565b80156107045780601f106106d957610100808354040283529160200191610704565b820191906000526020600020905b8154815290600101906020018083116106e757829003601f168201915b5050505050815250509050600073ffffffffffffffffffffffffffffffffffffffff16816000015173ffffffffffffffffffffffffffffffffffffffff161415610783576040517f08c379a000000000000000000000000000000000000000000000000000000000815260040161077a90610ca0565b60405180910390fd5b806020015191505090565b60016020528060005260406000206000915090508060000160009054906101000a900473ffffffffffffffffffffffffffffffffffffffff16908060010180546107d790610dc7565b80601f016020809104026020016040519081016040528092919081815260200182805461080390610dc7565b80156108505780601f1061082557610100808354040283529160200191610850565b820191906000526020600020905b81548152906001019060200180831161083357829003601f168201915b5050505050905082565b50805461086690610dc7565b6000825580601f106108785750610897565b601f0160209004906000526020600020908101906108969190610920565b5b50565b8280546108a690610dc7565b90600052602060002090601f0160209004810192826108c8576000855561090f565b82601f106108e157805160ff191683800117855561090f565b8280016001018555821561090f579182015b8281111561090e5782518255916020019190600101906108f3565b5b50905061091c9190610920565b5090565b5b80821115610939576000816000905550600101610921565b5090565b6000604051905090565b600080fd5b600080fd5b600080fd5b600080fd5b6000601f19601f8301169050919050565b7f4e487b7100000000000000000000000000000000000000000000000000000000600052604160045260246000fd5b6109a48261095b565b810181811067ffffffffffffffff821117156109c3576109c261096c565b5b80604052505050565b60006109d661093d565b90506109e2828261099b565b919050565b600067ffffffffffffffff821115610a0257610a0161096c565b5b610a0b8261095b565b9050602081019050919050565b82818337600083830152505050565b6000610a3a610a35846109e7565b6109cc565b905082815260208101848484011115610a5657610a55610956565b5b610a61848285610a18565b509392505050565b600082601f830112610a7e57610a7d610951565b5b8135610a8e848260208601610a27565b91505092915050565b600060208284031215610aad57610aac610947565b5b600082013567ffffffffffffffff811115610acb57610aca61094c565b5b610ad784828501610a69565b91505092915050565b600081519050919050565b600082825260208201905092915050565b60005b83811015610b1a578082015181840152602081019050610aff565b83811115610b29576000848401525b50505050565b6000610b3a82610ae0565b610b448185610aeb565b9350610b54818560208601610afc565b610b5d8161095b565b840191505092915050565b60006020820190508181036000830152610b828184610b2f565b905092915050565b600073ffffffffffffffffffffffffffffffffffffffff82169050919050565b6000610bb582610b8a565b9050919050565b610bc581610baa565b8114610bd057600080fd5b50565b600081359050610be281610bbc565b92915050565b600060208284031215610bfe57610bfd610947565b5b6000610c0c84828501610bd3565b91505092915050565b610c1e81610baa565b82525050565b6000604082019050610c396000830185610c15565b8181036020830152610c4b8184610b2f565b90509392505050565b7f55736572206e6f7420666f756e64000000000000000000000000000000000000600082015250565b6000610c8a600e83610aeb565b9150610c9582610c54565b602082019050919050565b60006020820190508181036000830152610cb981610c7d565b9050919050565b7f5265656e7472616e637947756172643a207265656e7472616e742063616c6c00600082015250565b6000610cf6601f83610aeb565b9150610d0182610cc0565b602082019050919050565b60006020820190508181036000830152610d2581610ce9565b9050919050565b7f5573657220616c72656164792072656769737465726564000000000000000000600082015250565b6000610d62601783610aeb565b9150610d6d82610d2c565b602082019050919050565b60006020820190508181036000830152610d9181610d55565b9050919050565b7f4e487b7100000000000000000000000000000000000000000000000000000000600052602260045260246000fd5b60006002820490506001821680610ddf57607f821691505b60208210811415610df357610df2610d98565b5b5091905056fea2646970667358221220a01c1e3be78a38603131935f1f07e0d3dade84315d64a68301dd255275ece52f64736f6c63430008090033",
  "linkReferences": {},
  "deployedLinkReferences": {}
}